1FATURA TECNICA                FLEURY S.A                         571301073190878MULTI SAUDE EMPRESA                20130920131003REFATURAMENTO  0000002                            
2010001FLEURY MEDICINA E SAUDE            00006205731310201300000000000000000000000000000000000000000000020131003                                                                   
30001000000000COB REF PARTICIPAC.07/2013             00000000000    00000000RS09201300000000005040000000000000000010                                100000000000                    
30001005879300ADRIANNE COLETTE ANTUNES               13071988220TNE124052013  09201300000000001282400000000000000001                    106892      103213586196                    
30001005879301LEANDRO JUNIOR BEZERRA DA SILVA        07051987121TNE124052013  09201300000000001282400000000000000001                                102154924123                    
30001005879302ANTONY GABRIEL ANTUNES DA SILVA        25072011112TNE124052013  09201300000000001282400000000000000001                                100000000000                    
30001000007800ALINE CRISTINA DE ARAUJO               01081983210TNE101092012  0920130000000000128240000000000000000183 FL CAMPINAS      000000003319131979113858                    
30001005099700ANA CAROLINA BRAGA TORRES DE LIMA      31071990220TNE123102012  0920130000000000128240000000000000000183 FL CAMPINAS      105540      139940367805                    
30001005099701CLEVER THALES TORRES DE LIMA           30041986121TNE123102012  09201300000000001282400000000000000001                                101518462197                    
30001005100400ANA PAULA BENEDITO                     28101975210TNE123102012  0920130000000000128240000000000000000183 FL CAMPINAS      105546      126074602808                    
30001005100401PETERSON HENRIQUE DOS SANTOS           12061997112TNE123102012  09201300000000001282400000000000000001                                100000000000                    
30001006070400ANDREIA FERREIRA DA SILVA RIBEIRO      03041971210TNE115072013IR07201300000000000683900000000000000003TEC DE ENFERMAGEM   107361      112797461819                    
30001006070400ANDREIA FERREIRA DA SILVA RIBEIRO      03041971210TNE115072013IR08201300000000001282400000000000000003TEC DE ENFERMAGEM   107361      112797461819                    
30001006070400ANDREIA FERREIRA DA SILVA RIBEIRO      03041971210TNE115072013IM09201300000000001282400000000000000003TEC DE ENFERMAGEM   107361      112797461819                    
30001006070401CAMILLY FERREIRA DA SILVA RIBEIRO      18072000212TNE115072013IR07201300000000000683900000000000000003                                137847639874                    
30001006070401CAMILLY FERREIRA DA SILVA RIBEIRO      18072000212TNE115072013IR08201300000000001282400000000000000003                                137847639874                    
30001006070401CAMILLY FERREIRA DA SILVA RIBEIRO      18072000212TNE115072013IM09201300000000001282400000000000000003                                137847639874                    
30001006070402LUIZ FERREIRA DA SILVA RIBEIRO         07052008112TNE115072013IR07201300000000000683900000000000000003                                140814795854                    
30001006070402LUIZ FERREIRA DA SILVA RIBEIRO         07052008112TNE115072013IR08201300000000001282400000000000000003                                140814795854                    
30001006070402LUIZ FERREIRA DA SILVA RIBEIRO         07052008112TNE115072013IM09201300000000001282400000000000000003                                140814795854                    
30001003278600BREILA MARTINS VALOTA                  19061987210TNE101092012  0920130000000000128240000000000000000183 FL CAMPINAS      000000102708123013386819                    
30001000003500CARMEM SILVIA DE CARVALHO SANCHES      05061967220TNE101092012  0920130000000000128240000000000000000183 FL CAMPINAS      000000001830109300043889                    
30001000003501VALENTIM DONIZATE SANCHES              19101962121TNE101092012  09201300000000001282400000000000000001                                100000000000                    
30001000003502RAFAELA DE CARVALHO SANCHES            18051989212TNE101092012  09201300000000001282400000000000000001                                137421515844                    
30001000003503LETICIA DE CARVALHO SANCHES            20021995212TNE101092012  09201300000000001282400000000000000001                                100000000000                    
30001004488100CASSIA REGINA PEREZ                    14091970240TNE101092012  0920130000000000128240000000000000000183 FL CAMPINAS      000000101678114148898878                    
30001004488101LUIZ PARRA PEREIRA                     21101964121TNE101092012  09201300000000001282400000000000000001                                100000000000                    
30001004488102VICTOR HUGO PEREZ DE LIMA              14041993112TNE101092012  09201300000000001282400000000000000001                                100000000000                    
30001004488103ISABELLA PEREZ DE LIMA                 15061998212TNE101092012  09201300000000001282400000000000000001                                100000000000                    
30001004488104ARTHUR PEREZ DE LIMA                   02051996112TNE101092012  09201300000000001282400000000000000001                                100000000000                    
30001005013000CLEIDE APARECIDA MOREIRA SANCHES       28051978220TQN201102012  09201300000000002166300000000000000001                    000000102887103627416627                    
30001005013001ALEXANDRE CARVALHO SANCHES             20081977121TQN201102012  09201300000000002166300000000000000001                                127455667841                    
30001003279400DAIANE APARECIDA DE SOUZA              13041989210TNE101092012  09201300000000001282400000000000000001AUX ATEND II        000000102824136418593871                    
30001003259000DALANY BARBOSA DA SILVA                06011985210TNE101092012  0920130000000000128240000000000000000183 FL CAMPINAS      000000002622131853302856                    
30001003259001ANDRE DA COSTA FERNANDES               01051985121TNE101092012  09201300000000001282400000000000000001                                100000000000                    
30001003259002MIGUEL ANTONIO BARBOSA FERNANDEZ       11072013112TNE109082013IR08201300000000000940400000000000000003                                147242170818                    
30001003259002MIGUEL ANTONIO BARBOSA FERNANDEZ       11072013112TNE109082013IM09201300000000001282400000000000000003                                147242170818                    
30001003282400DANIELA MARIA VANINI                   20081984240TNE101092012  09201300000000001282400000000000000001777 SEM UNIDADE     000000104521131257669826                    
30001003273500DEBORA CRISTINA PROCOPIO DOS REIS      22051987210TNE101092012  0920130000000000128240000000000000000183 FL CAMPINAS      000000102065134819141805                    
30001003273501LEONARDO PROCOPIO DE LIRA              11042009112TNE101092012  09201300000000001282400000000000000001                                100000000000                    
30001003269700DENISE RODRIGUES MOREIRA               22081987210TNE101092012  09201300000000001282400000000000000001OP DE ATENDIMENTO II000000101675102101448319                    
30001005478000ELAINE CRISTINA DOS SANTOS NANDIN      28051982220TNE120032013  09201300000000001282400000000000000001                    106538      129780158880                    
30001005478001MARCELO MAYCON SATO NANDIN             09101982121TNE120032013  09201300000000001282400000000000000001                                129346909897                    
30001005478002ISABELLA NANDIN                        21102005212TNE120032013  09201300000000001282400000000000000001                                100000000000                    
30001005478003GABRIEL NANDIN                         19022010112TNE120032013  09201300000000001282400000000000000001                                100000000000                    
30001000001900ELIANA DA CRUZ GOUVEIA                 30031963220TNE101092012  09201300000000001282400000000000000001ANAL LAB II         000000000270102307717854                    
30001000001901CLAUDENOR GONCALVES DE GOUVEIA         21091965121TNE101092012  09201300000000001282400000000000000001                                100000000000                    
30001000001902CLAUDIO DE GOUVEIA                     05111989112TNE101092012  09201300000000001282400000000000000001                                100000000000                    
30001000008600FABIO ROBERTO ANASTACIO ROSA           19121980110TNE101092012  09201300000000001282400000000000000001ANAL LAB I          000000003682128969825827                    
30001003266200FERNANDA DE CASSIA ISRAEL CARDOSO      23071982220TQN201092012  09201300000000002166300000000000000001COORD ENF II        000000101638129158596801                    
30001003266201JEAN CARLOS CARDOSO                    23111981121TQN201092012  09201300000000002166300000000000000001                                129827829874                    
30001005880700FLAVIA FIALHO BAJANO                   14051982220TNE124052013  09201300000000001282400000000000000001                    106863      122246976863                    
30001005880701GABRIELA FIALHO BAJANO                 11022010212TNE124052013  09201300000000001282400000000000000001                                100000000000                    
30001005880702VILSON TADEU BAJANO                    15041977121TNE124052013  09201300000000001282400000000000000001                                128169596866                    
30001003267000GISELE CRISTINE SUZIGAN DA SILVA       07021979220TNE101092012  0920130000000000128240000000000000000183 FL CAMPINAS      000000101641126259223897                    
30001003267000GISELE CRISTINE SUZIGAN DA SILVA       07021979220TNE101092012CM0920130000000000128240000000000000005583 FL CAMPINAS      000000101641126259223897                    
30001003267000GISELE CRISTINE SUZIGAN DA SILVA       07021979220TNE101092012CR0820130000000000004270000000000000005583 FL CAMPINAS      000000101641126259223897                    
30001003267001CLAYTON SANTOS DA SILVA                01111977121TNE101092012  09201300000000001282400000000000000001                                103143129603                    
30001003267001CLAYTON SANTOS DA SILVA                01111977121TNE101092012CM09201300000000001282400000000000000055                                103143129603                    
30001003267001CLAYTON SANTOS DA SILVA                01111977121TNE101092012CR08201300000000000042700000000000000055                                103143129603                    
30001005101200ISABELA REGINA DE JESUS                30011990210TNE123102012  0920130000000000128240000000000000000183 FL CAMPINAS      105579      139983577852                    
30001005101201KAIC DE JESUS PEREIRA                  24082011112TNE123102012  09201300000000001282400000000000000001                                146013153876                    
30001000006000JONHES ALVES DOS SANTOS                24051981120TNE101092012  0920130000000000128240000000000000000183 FL CAMPINAS      000000002741129643703894                    
30001000006001VALQUIRIA ALESSANDRA ALVES SANTOS      24011982221TNE101092012  09201300000000001282400000000000000001                                102176640869                    
30001000006002MARIA EDUARDA ALVES DOS SANTOS         05022010212TNE101092012  09201300000000001282400000000000000001                                145493560810                    
30001000006003JOAO VICTOR ALVES DOS SANTOS           27042006112TNE101092012  09201300000000001282400000000000000001                                145493603802                    
30001000006004VICTORIA HESHELLEY A DOS SANTOS        04042002212TNE101092012  09201300000000001282400000000000000001                                100000000000                    
30001006089500KARINA PINTO WALLNER                   11081985220TQN231072013IR07201300000000000072200000000000000003TEC DE ENFERMAGEM   107367      134905727855                    
30001006089500KARINA PINTO WALLNER                   11081985220TQN231072013IR08201300000000002166300000000000000003TEC DE ENFERMAGEM   107367      134905727855                    
30001006089500KARINA PINTO WALLNER                   11081985220TQN231072013IM09201300000000002166300000000000000003TEC DE ENFERMAGEM   107367      134905727855                    
30001006089501RODOLFO EULAMPIO DE MORAES WALLNER     04091980121TQN231072013IR07201300000000000072200000000000000003                                128938133800                    
30001006089501RODOLFO EULAMPIO DE MORAES WALLNER     04091980121TQN231072013IR08201300000000002166300000000000000003                                128938133800                    
30001006089501RODOLFO EULAMPIO DE MORAES WALLNER     04091980121TQN231072013IM09201300000000002166300000000000000003                                128938133800                    
30001003280800LUANA ALVES ARAUJO                     17011986210TNE101092012  0920130000000000128240000000000000000183 FL CAMPINAS      000000102873132765534810                    
30001000004300LUCIANA A XAVIER BALIERIO SOARES       07101971220TNE101092012  0920130000000000128240000000000000000183 FL CAMPINAS      000000001838115843331890                    
30001003276000LUIS ALBERTO CASTELLO JUNIOR           19061981110TNE101092012  0920130000000000128240000000000000000183 FL CAMPINAS      000000102426128720902824                    
30001003263800MARCOS ALEXANDRE NATIVIDADE SILVA      03011966120TNE101092012  0920130000000000128240000000000000000183 FL CAMPINAS      000000100264108007382844                    
30001003263801ELIZABETH RONCHI PEDRO                 12071966221TNE129012013  09201300000000001282400000000000000001                                107608615877                    
30001003260300MARTA DE SOUSA DOS SANTOS ASMAR        27051968240TNE101092012  09201300000000001282400000000000000001TEC DE RADIOLOGIA II000000002929112128519861                    
30001003260301DIEGO DOS SANTOS ARMAR                 21051989112TNE101092012  09201300000000001282400000000000000001                                100000000000                    
30001000005100MICHELE CRISTINA CAMILO                02121982210TNE101092012  0920130000000000128240000000000000000183 FL CAMPINAS      000000002660122295290805                    
30001000005101LEANDRO DE OLIVEIRA BARREIROS          25081982121TNE101092012  09201300000000001282400000000000000001                                121891480812                    
30001003265400MONIZE GRAZIELE FAGUNDES CARRARO       21061990210TNE101092012  0920130000000000128240000000000000000183 FL CAMPINAS      000000101612138698823874                    
30001003265401DAVID DIAS BRITO                       03051988121TNE106122012  09201300000000001282400000000000000001                                132199557898                    
30001006152200PAMELA LUIZA DE BARROS                 26041984210TNE120082013IR08201300000000000470200000000000000003TEC ENFERMAGEM      107482      131983791806                    
30001006152200PAMELA LUIZA DE BARROS                 26041984210TNE120082013IM09201300000000001282400000000000000003TEC ENFERMAGEM      107482      131983791806                    
30001003281600RAQUEL APARECIDA PADILHA               05101973240TNE101092012  0920130000000000128240000000000000000183 FL CAMPINAS      000000102931113953636847                    
30001003281601JULIANA LAIZ PADILHA PEQUENO           17011992112TNE101092012  09201300000000001282400000000000000001                                100000000000                    
30001003281602SOPHIA PADILHA DE OLIVEIRA             05092012112TNE125102012  09201300000000001282400000000000000001                                100000000000                    
30001003275100RAQUEL FERREIRA BEDON                  31011984220TNE101092012  0920130000000000128240000000000000000183 FL CAMPINAS      000000102370133779838800                    
30001003275101CLAITON FERNANDO BEDON                 02071983121TNE107022013  09201300000000001282400000000000000001                                131321015836                    
30001003275102SARAH FERREIRA BEDON                   16052013212TNE111062013  09201300000000001282400000000000000001                                100000000000                    
30001006058500REGINA SOUZA DE MELLO                  13051977220TNE101072013  09201300000000001282400000000000000001TEC ENFERMAGEM II   107249      121951005830                    
30001006058501FABICIO DANIEL DE MELLO                09091975121TNE101072013  09201300000000001282400000000000000001                                125198032824                    
30001006058502LIVIA SOUZA DE MELLO                   23032010212TNE101072013  09201300000000001282400000000000000001                                100000000000                    
30001003274300RODRIGO SOUZA MORAES                   23041983110TNE101092012  0920130000000000128240000000000000000183 FL CAMPINAS      000000102188130854950885                    
30001004601900RUTH LUCAS DE OLIVEIRA                 01091960210TNE128092012  09201300000000001282400000000000000001                    105225      106858683895                    
30001004601901VICTORIA LUCAS PEREIRA LIMA            13112000212TNE128092012  09201300000000001282400000000000000001                                100000000000                    
30001003264600SOLANGE SILVA MARTINS                  21081973220TNE101092012  0920130000000000128240000000000000000183 FL CAMPINAS      000000101090117273419885                    
30001003264601FERNANDO MARTINS                       27121977121TNE101092012  09201300000000001282400000000000000001                                109973182871                    
30001003272700STELLA M FREITAS BARBOSA CABOCLO       20051988210TNE101092012  0920130000000000128240000000000000000183 FL CAMPINAS      000000102064135300649805                    
30001003271900TATIANA COSTA NEMEN                    08121983220TNE101092012  0920130000000000128240000000000000000183 FL CAMPINAS      000000102048132662455802                    
30001003261100TATIANA PINGUELLO MULLER               28051979220TNE101092012  0920130000000000128240000000000000000183 FL CAMPINAS      000000003516126335312883                    
30001003261101JEFFERSON APARECIDO MULLER             18071974121TNE101092012  09201300000000001282400000000000000001                                113691407897                    
30001003261102BRENDA MULLER                          24112008212TNE101092012  09201300000000001282400000000000000001                                142403129810                    
30001003261103MURILO MULLER                          07022001112TNE101092012  09201300000000001282400000000000000001                                142403130826                    
30001003277800WILLIAM LEANDER DE ALMEIDA             01051976110TNE101092012  0920130000000000128240000000000000000183 FL CAMPINAS      000000102536125862994858                    
40001(AC)ACERTO DE FATURA(COBRAR)       000000000000000000000000000000000000000000000000000000                                                                                      
40001(RS)RECUPERACAO SINISTRO           000000000000000000000001000000000050400000000000000000                                                                                      
40001(  )VIDAS REMAN. MES ANTERIOR      000038000043000081000081000000001074100000000000000000                                                                                      
40001(IM)INCLUSOES NO MES               000000000000000000000007000000000107446000000000000000                                                                                      
40001(IR)INCLUSOES RETROATIVAS          000003000004000007000012000000000117865000000000000000                                                                                      
40001(RM)REATIVACOES NO MES             000000000000000000000000000000000000000000000000000000                                                                                      
40001(RR)REATIVACOES RETROATIVAS        000000000000000000000000000000000000000000000000000000                                                                                      
40001(TM)TRANSFERENCIAS NO MES          000000000000000000000000000000000000000000000000000000                                                                                      
40001(TR)TRANSFERENCIAS RETROATIVAS     000000000000000000000000000000000000000000000000000000                                                                                      
40001(AM)ALTERACOES NO MES              000000000000000000000000000000000000000000000000000000                                                                                      
40001(AR)ALTERACOES RETROATIVAS         000000000000000000000000000000000000000000000000000000                                                                                      
40001(TC)TOTAIS A COBRAR                000041000047000088000101000000001349811000000000000000                                                                                      
40001(AD)ACERTO DE FATURA(DEVOLVER)     000000000000000000000000000000000000000000000000000000                                                                                      
40001(CM)CANCELAMENTOS NO MES           000000000000000000000002000000000025648000000000000000                                                                                      
40001(CR)CANCELAMENTOS RETROATIVOS      000001000001000002000002000000000000854000000000000000                                                                                      
40001(TM)TRANSFERENCIAS NO MES          000000000000000000000000000000000000000000000000000000                                                                                      
40001(TR)TRANSFERENCIAS RETROATIVAS     000000000000000000000000000000000000000000000000000000                                                                                      
40001(AM)ALTERACOES NO MES              000000000000000000000000000000000000000000000000000000                                                                                      
40001(AR)ALTERACOES RETROATIVAS         000000000000000000000000000000000000000000000000000000                                                                                      
40001(TD)TOTAIS A DEVOLVER              000001000001000002000004000000000026502000000000000000                                                                                      
40001(TS)TOTAIS DA SUBFATURA            000040000046000086000105000000001323309000000000000000                                                                                      
40001   PLANOS CONTRATADOS:                                                                                                                                                         
40001   PLANO   N.TIT   N.DEP N.VIDAS FATOR REEMB.HM HOSPITAL                 PLANO   N.TIT   N.DEP N.VIDAS FATOR REEMB.HM HOSPITAL                                                 
40001   NP03        0       0                   0,00 REFERENCIADO             NP06        0       0                   0,00 REFERENCIADO                                             
40001   TNE1       37      43                   0,00 REFERENCIADO             TQN2        3       3                   0,00 REFERENCIADO                                             
2010002A MEDICINA DIAGNOSTICA             00006205741310201300000000000000000000000000000000000000000000020131003                                                                   
30002000000000COB REF PARTICIPAC.07/2013             00000000000    00000000RS09201300000000086620900000000000000010                                125862994858                    
30002000000000COB.REF. TAXA 2A VIA CARTAO            00000000000    00000000AC09201300000000000500000000000000000000                                125862994858                    
30002003392800ABNER BALDEZ AMARAL                    12071985110TNE101092012  092013000000000012824000000000000000014 ADM RJ            000000004677110859460703                    
30002000024800ADLAIDE ARAUJO DE BARROS               20071966220TNE101092012  0920130000000000128240000000000000000121 AMAIS LEME       000000004449122337270297                    
30002000024801ROBERTA ARAUJO DE BARROS               23041990212TNE101092012  09201300000000001282400000000000000001                                100000000000                    
30002003547500ADRIANA COSTA MACHADO DE ASSIS         11051981220TNE101092012  0920130000000000128240000000000000000125 AMAIS RECREIO    000000103763108876038744                    
30002003462200ADRIANA DA SILVA MACEDO LESSA          12061977220TNE101092012  092013000000000012824000000000000000014 ADM RJ            000000101311107414777774                    
30002003462201ALEX ALBUQUERQUE LESSA                 13071976121TNE101092012  09201300000000001282400000000000000001                                100000000000                    
30002003462202ELISA MACEDO LESSA                     07042013212TNE130042013  09201300000000001282400000000000000001                                100000000000                    
30002003428200ADRIANA SAMPAIO BELLAS DE ROMARIZ      18091968220TQN201092012  09201300000000002166300000000000000001COORD ATEND I       000000004758196190701787                    
30002003428201SERGIO SAMPAIO BELLAS ROMARIZ          01111994112TQN201092012  09201300000000002166300000000000000001                                100000000000                    
30002003428202NATASHA SAMPAIO BELLAS ROMARIZ         20061991212TQN201092012  09201300000000002166300000000000000001                                100000000000                    
30002003552100ADRIANO VIEIRA CORREA                  06021990110TNE101092012  0920130000000000128240000000000000000125 AMAIS RECREIO    000000103786112637039760                    
30002003552101CAUA DOS SANTOS CORREA                 14072009112TNE101092012  09201300000000001282400000000000000001                                100000000000                    
30002005283300ADRIENNE BUNN MORENO                   15081977210NP0318122012  09201300000000003614200000000000000001                    106026      107932848725                    
30002005283300ADRIENNE BUNN MORENO                   15081977210NP0318122012CM09201300000000003614200000000000000055                    106026      107932848725                    
30002005283300ADRIENNE BUNN MORENO                   15081977210NP0318122012CR08201300000000000120400000000000000055                    106026      107932848725                    
30002003422300ALBERTO MARIANO                        24091951120TNE101092012  0920130000000000128240000000000000000131 AMAIS TAV MAC    000000004739144443064753                    
30002003422301MARILDA COSTA DOS SANTOS MARIANO       30041958221TNE101092012  09201300000000001282400000000000000001                                100000000000                    
30002005234500ALDA LUCIA DE ANDRADE COSTA            27051966220TNE122112012  09201300000000001282400000000000000001                    105854      186659219749                    
30002005234500ALDA LUCIA DE ANDRADE COSTA            27051966220TNE122112012CM09201300000000001282400000000000000055                    105854      186659219749                    
30002005234500ALDA LUCIA DE ANDRADE COSTA            27051966220TNE122112012CR08201300000000000042700000000000000055                    105854      186659219749                    
30002005234501IAGO ANDRADE DO NASCIMENTO             01031996112TNE122112012  09201300000000001282400000000000000001                                100000000000                    
30002005234501IAGO ANDRADE DO NASCIMENTO             01031996112TNE122112012CM09201300000000001282400000000000000055                                100000000000                    
30002005234501IAGO ANDRADE DO NASCIMENTO             01031996112TNE122112012CR08201300000000000042700000000000000055                                100000000000                    
30002005234502ARIANE DE ANDRADE DO NASCIMENTO        18051993212TNE122112012  09201300000000001282400000000000000001                                115294784726                    
30002005234502ARIANE DE ANDRADE DO NASCIMENTO        18051993212TNE122112012CM09201300000000001282400000000000000055                                115294784726                    
30002005234502ARIANE DE ANDRADE DO NASCIMENTO        18051993212TNE122112012CR08201300000000000042700000000000000055                                115294784726                    
30002005234503EDSON ADRIANO COSTA                    31071963121TNE122112012  09201300000000001282400000000000000001                                181638965749                    
30002005234503EDSON ADRIANO COSTA                    31071963121TNE122112012CM09201300000000001282400000000000000055                                181638965749                    
30002005234503EDSON ADRIANO COSTA                    31071963121TNE122112012CR08201300000000000042700000000000000055                                181638965749                    
30002003283200ALESSANDRA ALBUQUERQUE NEY AMORIM      05061976220TQN201092012  09201300000000002166300000000000000001COORD ENF III       000000003363107067595754                    
30002003283201PAULO FERNANDO GUEDES AMORIM           14111976121TQN201092012  09201300000000002166300000000000000001                                104492594710                    
30002003567000ALESSANDRA BATISTA LOPES               25111986220TNE101092012  09201300000000001282400000000000000001AUX DE ATENDIMENTO I000000104159111445259770                    
30002003444400ALESSANDRA DE ARAUJO COSTA NOVAES      14121974210TNE101092012  09201300000000001282400000000000000001199 AMAIS DEL CAST  000000101230107495047739                    
30002003444401EVANDRO FREITAS NOVAES                 13081987121TNE101092012  09201300000000001282400000000000000001                                199415054700                    
30002003444402BRUNO ARAUJO COSTA FREITAS NOVAES      02102002112TNE101092012  09201300000000001282400000000000000001                                100000000000                    
30002003291300ALESSANDRA DOS SANTOS SILVA            28061979210TNE101092012  09201300000000001282400000000000000001ANAL LAB II         000000004435105217289759                    
30002003551300ALESSANDRA FATIMA DE LIMA PRATES       21021975210TQN201092012  09201300000000002166300000000000000001COORD ATEND I       000000103780104263505700                    
30002003284000ALESSANDRA RUDINO OLIVEIRA             13111975220TQN201092012  09201300000000002166300000000000000001COORD DE LOGISTICA  000000004416104469612723                    
30002005923400ALESSANDRA SANCHES DE ANDRADE          26051975220TNE105062013  09201300000000001282400000000000000001                    107155      107692147701                    
30002005923401FABIO MARTINS DE ANDRADE               16081977121TNE105062013  09201300000000001282400000000000000001                                107114517700                    
30002005923402NATHALIA SANCHES DE ANDRADE            03122000212TNE105062013  09201300000000001282400000000000000001                                100000000000                    
30002003376600ALEX RAPOSO                            05101961120TNE101092012  0920130000000000128240000000000000000132 AMAIS TERESOPOLIS000000004635169534985791                    
30002003376601SOLANGE MARIA CARNEIRO RAPOSO          19111966221TNE101092012  09201300000000001282400000000000000001                                100743369087                    
30002003376602FERNANDA CARNEIRO RAPOSO               24081988212TNE101092012  09201300000000001282400000000000000001                                113266565703                    
30002003376603SAMARA CARNEIRO RAPOSO                 28081997212TNE101092012  09201300000000001282400000000000000001                                116419390796                    
30002006067400ALEX UBENDORFER GIRALDI                27081981110TQN215072013IR07201300000000001155300000000000000003COORD MANUT         107164      129457164881                    
30002006067400ALEX UBENDORFER GIRALDI                27081981110TQN215072013IR08201300000000002166300000000000000003COORD MANUT         107164      129457164881                    
30002006067400ALEX UBENDORFER GIRALDI                27081981110TQN215072013IM09201300000000002166300000000000000003COORD MANUT         107164      129457164881                    
30002006067401GIOVANA PEPINO                         07031977221TQN215072013IR07201300000000001155300000000000000003                                127210726845                    
30002006067401GIOVANA PEPINO                         07031977221TQN215072013IR08201300000000002166300000000000000003                                127210726845                    
30002006067401GIOVANA PEPINO                         07031977221TQN215072013IM09201300000000002166300000000000000003                                127210726845                    
30002000022100ALEXSANDRA MARIA DA SILVA              18061978210TNE101092012  09201300000000001282400000000000000001ANAL DE LOGISTICA I 000000004443107865148763                    
30002000022101GABRIEL DA SILVA SOUZA                 17052006112TNE101092012  09201300000000001282400000000000000001                                116300039722                    
30002000022102MARIANA DA SILVA SOUZA                 19032012212TNE101092012  09201300000000001282400000000000000001                                116631205794                    
30002005167500ALEXSSANDRO ANTONIO DE AVELAR          30121979110TQN209112012  09201300000000002166300000000000000001                    103764      103605315631                    
30002005167501ANDREIA AGUIAR VIEIRA AVELAR           03031983221TQN211012013  09201300000000002166300000000000000001                                106015526602                    
30002003407000ALINE DE FATIMA CARVALHO DE SOUZA      18021985220TNE101092012  0920130000000000128240000000000000000132 AMAIS TERESOPOLIS000000004705110094743754                    
30002003407001MAXWELL DE OLIVEIRA CORDEIRO           05061985121TNE101092012  09201300000000001282400000000000000001                                111787268780                    
30002003407002MARIA EDUARDA DE S FERNANDES           29102002212TNE101092012  09201300000000001282400000000000000001                                100000000000                    
30002005289200ALINE DE LIMA DEOLINDO                 14121982210TQN207012013  09201300000000002166300000000000000001                    100124      132764823800                    
30002003448700ALINE PEREIRA DOS SANTOS               04061980210TNE101092012  092013000000000012824000000000000000019 AMAIS BARRA T     000000101240108461098757                    
30002003448701MARIA EDUARDA SANTOS DE ASSIS          16112010212TNE101092012  09201300000000001282400000000000000001                                100000000000                    
30002003317000ALINE SILVA DE SOUSA                   09061979210TNE101092012  092013000000000012824000000000000000014 ADM RJ            000000004528183450602349                    
30002003379000ANA CAROLINA CARLOS MARCHITO           05011987210TQN201092012  09201300000000002166300000000000000001OP DE ATENDIMENTO I 000000004644112263995765                    
30002003486000ANA CAROLINA DOMINGUES MAGALHAES       05081990210TNE101092012  0920130000000000128240000000000000000129 AMAIS T          000000102095112309279722                    
30002003490800ANA CATALINE MENEZES BRAVO             26061984220TNE101092012  0920130000000000128240000000000000000119 AMAIS JD BOT     000000102252110139632700                    
30002003490801ALEX CHISTIAN DUARTE BRAVO REIS        03091985121TNE101092012  09201300000000001282400000000000000001                                100000000000                    
30002003490802HIGOR MENEZES TAVARES DOMINGUES        05082002112TNE101092012  09201300000000001282400000000000000001                                100000000000                    
30002003490803MIGUEL MENEZES BRAVO                   23072013112TNE112082013IR08201300000000000812100000000000000003                                117470425799                    
30002003490803MIGUEL MENEZES BRAVO                   23072013112TNE112082013IM09201300000000001282400000000000000003                                117470425799                    
30002003295600ANA CLAUDIA QUEIROZ SOUZA VALADAO      04061969210TQN201092012  09201300000000002166300000000000000001ANAL SUST III       000000004460100569827710                    
30002003295601CAROLINA QUEIROZ VALLADAO              18082003212TQN201092012  09201300000000002166300000000000000001                                116677451747                    
30002003393600ANA CRISTINA SILVA DE SOUZA            01041970220TNE101092012  09201300000000001282400000000000000001ASSIST DE COLETA I  000000004679101164119702                    
30002003393601JOSE ROBERTO CORREA DE SOUZA           29091973121TNE101092012  09201300000000001282400000000000000001                                100000000000                    
30002003393602ANDERSON LUCAS SILVA CORREA SOUZA      06022002112TNE101092012  09201300000000001282400000000000000001                                100000000000                    
30002003374000ANA FLAVIA DUARTE DE PAIVA             17041985210TNE101092012  0920130000000000128240000000000000000129 AMAIS T          000000004633111005439702                    
30002003374001DAVI DUARTE DE LIMA                    11052013112TNE113062013  09201300000000001282400000000000000001                                100000000000                    
30002004522500ANA ISABEL PEREIRA SALLES              30051970220TQN201092012  09201300000000002166300000000000000001COORD DE UNIDADE I  000000103555100231992700                    
30002004522501JULIANA PEREIRA SALLES                 26111993212TQN201092012  09201300000000002166300000000000000001                                100000000000                    
30002004522502DIEGO PEREIRA SALLES                   27031992112TQN201092012  09201300000000002166300000000000000001                                100000000000                    
30002004522503WAGNER MOTTA SALLES                    29061965121TQN217102012  09201300000000002166300000000000000001                                187494396772                    
30002005319800ANA JULIA DIAS DA SILVA                20051981210TNE115012013  09201300000000001282400000000000000001                    106131      108557960735                    
30002003580700ANA KELY DA SILVA SALES                14021984240TNE101092012  09201300000000001282400000000000000001ASSIST DE COLETA I  000000104762105669117794                    
30002003580701MANUELLA DA SILVA DIAS                 20122010212TNE101092012  09201300000000001282400000000000000001                                100000000000                    
30002003344800ANA LUCIA DO VALLE GALHARDO            11101977210TNE101092012  09201300000000001282400000000000000001OP DE ATENDIMENTO I 000000004576107777963767                    
30002003344801GIOVANNA DO VALLE GALHARDO SANTOS      21122010212TNE101092012  09201300000000001282400000000000000001                                116682445784                    
30002003344802ANA VITORIA VALLE GALHARDO ALMEIDA     02012002212TNE101092012  09201300000000001282400000000000000001                                100000000000                    
30002003344803ANA CLARA DO VALLE GALHARDO            12102005212TNE101092012  09201300000000001282400000000000000001                                100000000000                    
30002000027200ANA LUCIA RODRIGUES CAVALHEIRO         03051964210TQN201092012  09201300000000002166300000000000000001ANAL LAB II         000000004457178548756772                    
30002003425800ANA MARCIA NASCIMENTO MELO CHAVES      19121976220TNE101092012  09201300000000001282400000000000000001ASSIST ENF I        000000004753191618428500                    
30002003425801ALBERTO REGO CHAVES JUNIOR             01111976121TNE101092012  09201300000000001282400000000000000001                                189942000534                    
30002003425802ISAC NASCIMENTO DE MELO CHAVES         25032011112TNE101092012  09201300000000001282400000000000000001                                115986382706                    
30002003470300ANA PAULA BRAGA DA SILVA ANTAS         01031983220TNE101092012  092013000000000012824000000000000000014 ADM RJ            000000101498109999073794                    
30002003470301LUIS HENRIQUE FREIRE ANTAS             29091982121TNE101092012  09201300000000001282400000000000000001                                100000000000                    
30002003310300ANA PAULA DE MENESES TORRES            05061973220TNE101092012  092013000000000012824000000000000000017 AMAIS AM PEIXOTO  000000004514102399957750                    
30002003310301HILARIO DA SILVA A MOREIRA             28031962121TNE101092012  09201300000000001282400000000000000001                                100000000000                    
30002003310302VICTORIA MENESES TORRES MOREIRA        01041998212TNE101092012  09201300000000001282400000000000000001                                100000000000                    
30002003310303MARIA EDUARDA TORRES MOREIRA           09022007212TNE101092012  09201300000000001282400000000000000001                                100000000000                    
30002003301400ANA PAULA STEIHOGEM DE PERNE           30051970210TQN201092012  09201300000000002166300000000000000001COORD DE FINANCAS   000000004490101891225790                    
30002003301401ALAN STEIHOGEN PERNE SANTOS            19091992112TQN201092012  09201300000000002166300000000000000001                                100000000000                    
30002003301402VITOR STEIHOGEN PERNE SANTOS           12111998112TQN201092012  09201300000000002166300000000000000001                                100000000000                    
30002003301403BRUNO STEIHOGEN PERNE SANTOS           12111998112TQN201092012  09201300000000002166300000000000000001                                100000000000                    
30002003301404IGOR STEIHOGEN PERNE SANTOS            13062000112TQN201092012  09201300000000002166300000000000000001                                100000000000                    
30002003308100ANA PAULA VALENCA MONTEIRO             20011971210TNE101092012  09201300000000001282400000000000000001234 AMAIS COP       000000004506102626807770                    
30002006065800ANA PAULA VAZ DE AQUINO                14101985210TNE112072013IR07201300000000000812100000000000000003OP DE ATENDIM I     107159      110704570785                    
30002006065800ANA PAULA VAZ DE AQUINO                14101985210TNE112072013IR08201300000000001282400000000000000003OP DE ATENDIM I     107159      110704570785                    
30002006065800ANA PAULA VAZ DE AQUINO                14101985210TNE112072013IM09201300000000001282400000000000000003OP DE ATENDIM I     107159      110704570785                    
30002006065801EDUARDA VAZ DE ABREU                   22122003212TNE115072013IR07201300000000000683900000000000000003                                115019397776                    
30002006065801EDUARDA VAZ DE ABREU                   22122003212TNE115072013IR08201300000000001282400000000000000003                                115019397776                    
30002006065801EDUARDA VAZ DE ABREU                   22122003212TNE115072013IM09201300000000001282400000000000000003                                115019397776                    
30002003395200ANA RAFAELA DE SOUSA LIMA              05061990210TNE101092012  0920130000000000128240000000000000000127 AMAIS SAENZ PENA 000000004683112141166713                    
30002003395201SOPHIA DE SOUSA LIMA BATISTA           11062013212TNE121062013  09201300000000001282400000000000000001                                100000000000                    
30002005605700ANDERSON DE OLIVEIRA CURA              18031978110TQN216042013  09201300000000002166300000000000000001                    106813      107153129790                    
30002003345600ANDERSON DOS SANTOS PINTO              15011978120TNE101092012  0920130000000000128240000000000000000123 AMAIS MEIER      000000004578109123437707                    
30002003345601ELAINE ALVES FERNANDES PINTO           10051983221TNE101092012  09201300000000001282400000000000000001                                100000000000                    
30002003345602EMILLY FERNANDES DOS SANTOS            28112008212TNE101092012  09201300000000001282400000000000000001                                100000000000                    
30002003397900ANDERSON LUIZ NOGUEIRA DA SILVA        07021983120TNE101092012  09201300000000001282400000000000000001OP DE ATENDIMENTO II000000004686110030770726                    
30002003397901ROSANA DE SOUZA BERNARDO               30031984221TNE101092012  09201300000000001282400000000000000001                                100000000000                    
30002003397902YASMIN DE SOUZA NOGUEIRA               26042010212TNE101092012  09201300000000001282400000000000000001                                100000000000                    
30002003332400ANDRE ALCANTARA LEITE                  16031979120TNE101092012  092013000000000012824000000000000000019 AMAIS BARRA T     000000004552107996615705                    
30002003332401LEILA MAGALHAES TIMBO                  03041983221TNE101092012  09201300000000001282400000000000000001                                109191374740                    
30002003332402LUCAS MAGALHAES TIMBO LEITE            18092011112TNE101092012  09201300000000001282400000000000000001                                100000000000                    
30002003285900ANDRE LUIZ DE LIMA MOREIRA             26101970120TNE101092012  0920130000000000128240000000000000000119 AMAIS JD BOT     000000004417102739474784                    
30002003285901SAIONARA C P MOREIRA                   16031975221TNE101092012  09201300000000001282400000000000000001                                100000000000                    
30002003285902ANDRENARA P C MOREIRA                  07081998212TNE101092012  09201300000000001282400000000000000001                                100000000000                    
30002003285903ANDRESSARA COELHO MOREIRA              16052006212TNE101092012  09201300000000001282400000000000000001                                100000000000                    
30002003322700ANDREIA DA SILVA DE SOUZA              04081980220TNE101092012  09201300000000001282400000000000000001199 AMAIS DEL CAST  000000004535108630858737                    
30002003322701JOSENILTON SILVA DE SOUZA              11111976121TNE101092012  09201300000000001282400000000000000001                                100000000000                    
30002003322702DAVI SILVA DE SOUZA                    18102008112TNE101092012  09201300000000001282400000000000000001                                100000000000                    
30002003503300ANDREIA PEREIRA DA SILVA               23061989210TNE101092012  0920130000000000128240000000000000000120 AMAIS LAGO MAC   000000102495113002145700                    
30002003569600ANDREZZA ROCHA MARQUES GHATKAR         12041988220TNE101092012  0920130000000000128240000000000000000119 AMAIS JD BOT     000000104168111859992722                    
30002000017500ANGELA LOURO SIMOES                    28021966230TNE101092012  0920130000000000128240000000000000000119 AMAIS JD BOT     000000004425190515234753                    
30002000017501JOAO VITOR LOURO DA COSTA              28022005112TNE101092012  09201300000000001282400000000000000001                                100000000000                    
30002000017502MICHEL LOURO SIMOES                    14121991112TNE101092012  09201300000000001282400000000000000001                                100000000000                    
30002003385500ANGELA OLIVEIRA BITTENCOURT            02041982220TNE101092012  09201300000000001282400000000000000001ASSIST DE COLETA I  000000004659109106024769                    
30002003385501FABIO MAIA MALETESTA                   23061978121TNE101092012  09201300000000001282400000000000000001                                100000000000                    
30002003385502GABRIELA BITTENCOUT MALATESTA          05052004212TNE101092012  09201300000000001282400000000000000001                                100000000000                    
30002003385503FELIPE BITTENCOURT MALATESTA           08012013112TNE130012013  09201300000000001282400000000000000001                                100000000000                    
30002005096200ANGELA SOUZA DOS SANTOS                08031986210TNE123102012  0920130000000000128240000000000000000110 AMAIS BOT        105642      183923187572                    
30002003512200ANGELO DIEGO UTRINI BARBOSA            16071983110TNE101092012  0920130000000000128240000000000000000129 AMAIS T          000000102616105669857720                    
30002003577700ANGELO MATA BARTZ                      30071977110TQN201092012  09201300000000002166300000000000000001COORD DE RH         000000104724107738334711                    
30002000012400ANIELE LIMA DE OLIVEIRA PETRUCCELLI    05121973220TNE101092012  09201300000000001282400000000000000001ASSIST ENF II       000000003043102489552767                    
30002000012401ALEXANDRE TADEU MORGADO PETRUCCELLI    17041969121TNE101092012  09201300000000001282400000000000000001                                100494657758                    
30002000012402BRENO LIMA DE OLIVEIRA PETRUCCELLI     02072007112TNE101092012  09201300000000001282400000000000000001                                100000000000                    
30002003530000ANNA C FELIX SEIXAS ESCOBAR OLIVE      01121985220TNE101092012  0920130000000000128240000000000000000119 AMAIS JD BOT     000000103266110215273788                    
30002003513000ANNA CAROLINE DE MENEZES PAIXAO        03031985210TNE101092012  09201300000000001282400000000000000001147 AMAIS GOVERNADOR000000102617111300553707                    
30002003585800ANNA CATHARINA DE OLIVEIRA MARINS      17071975210NP0301092012  09201300000000003614200000000000000001GER DE RH           000000104767103388636729                    
30002005692800BARBARA OLIVA TEIXEIRA DE BARROS       13101992210TNE106052013  09201300000000001282400000000000000001                    106920      114779266742                    
30002003312000BARBARA REGINA AMARO DA PAZ            25031983210TNE101092012  09201300000000001282400000000000000001239 AMAIS CENTRO    000000004519109950324750                    
30002006066600BIANCA DA SILVA SOUSA                  09021987210TNE113072013IR07201300000000000769400000000000000003OP DE ATEND I       107156      111382027702                    
30002006066600BIANCA DA SILVA SOUSA                  09021987210TNE113072013IR08201300000000001282400000000000000003OP DE ATEND I       107156      111382027702                    
30002006066600BIANCA DA SILVA SOUSA                  09021987210TNE113072013IM09201300000000001282400000000000000003OP DE ATEND I       107156      111382027702                    
30002005025300BIANCA FERREIRA DO NASCIMENTO          10121985210TNE103102012  092013000000000012824000000000000000014 ADM RJ            105513      111271001730                    
30002005025301DAVI FERREIRA DE OLIVEIRA              24112010212TNE103102012  09201300000000001282400000000000000001                                100000000000                    
30002003347200BIANCA VALADARES DOS SANTOS PEREIRA    09011980220TNE101092012  092013000000000012824000000000000000013 AMAIS JACAREPAGUA 000000004581107966213730                    
30002003347201ALEXANDRE CALIXTO BASTOS PEREIRA       15021977121TNE101092012  09201300000000001282400000000000000001                                104750319708                    
30002003347202NICKOLAS ALEXANDRE V B PEREIRA         19012010112TNE101092012  09201300000000001282400000000000000001                                100000000000                    
30002003553000BRUNA DE ARAUJO ABRAHAO                05071989210TNE101092012  09201300000000001282400000000000000001199 AMAIS DEL CAST  000000103874112912809797                    
30002003553001ANA BEATRIZ ABRAHAO SANTOS COUTO       18062006212TNE101092012  09201300000000001282400000000000000001                                100000000000                    
30002004562400BRUNA FIGUEIREDO DA SILVA              10021989210TNE101092012  09201300000000001282400000000000000001239 AMAIS CENTRO    105219      112310043710                    
30002003420700BRUNA MARIA DE SOUZA PEREIRA           05051989210TNE101092012  09201300000000001282400000000000000001138 AMAIS ITAIPU    000000004728113261042761                    
30002006150600BRUNO C ABREU OLIVEIRA SACRAMENTO      20041989110TNE120082013IR08201300000000000470200000000000000003ESTAGIARIO          107495      113414971780                    
30002006150600BRUNO C ABREU OLIVEIRA SACRAMENTO      20041989110TNE120082013IM09201300000000001282400000000000000003ESTAGIARIO          107495      113414971780                    
30002003404500CAMILA DIAS MAIA SANTORO               31081978220TQN201092012  0920130000000000216630000000000000000129 AMAIS T          000000004697107996806721                    
30002003404501EDUARDO LOURENCO DE SOUZA              08071973121TQN201092012  09201300000000002166300000000000000001                                127968192803                    
30002003404502MIGUEL SANTORO LOURENCO                04082004112TQN201092012  09201300000000002166300000000000000001                                100000000000                    
30002003449500CARINE BORGES DE MACEDO                01081990210TNE101092012  09201300000000001282400000000000000001OP DE ATENDIMENTO I 000000101241112908028743                    
30002003449500CARINE BORGES DE MACEDO                01081990210TNE101092012AM09201300000000001282400000000000000059OP DE ATENDIMENTO I 000000101241112908028743                    
30002003449500CARINE BORGES DE MACEDO                01081990210TNE101092012AR08201300000000001282400000000000000059OP DE ATENDIMENTO I 000000101241112908028743                    
30002003449500CARINE BORGES DE MACEDO                01081990210TNE101092012AR07201300000000001282400000000000000059OP DE ATENDIMENTO I 000000101241112908028743                    
30002003449500CARINE BORGES DE MACEDO                01081990210TNE101092012AR06201300000000001282400000000000000059OP DE ATENDIMENTO I 000000101241112908028743                    
30002003449500CARINE BORGES DE MACEDO                01081990210TQN201092012AR06201300000000002166300000000000000009OP DE ATENDIMENTO I 000000101241112908028743                    
30002003449500CARINE BORGES DE MACEDO                01081990210TQN201092012AR07201300000000002166300000000000000009OP DE ATENDIMENTO I 000000101241112908028743                    
30002003449500CARINE BORGES DE MACEDO                01081990210TQN201092012AR08201300000000002166300000000000000009OP DE ATENDIMENTO I 000000101241112908028743                    
30002003449500CARINE BORGES DE MACEDO                01081990210TQN201092012AM09201300000000002166300000000000000009OP DE ATENDIMENTO I 000000101241112908028743                    
30002003294800CARLA ADRIANA SERRAO PIRES DA SILVA    26061974220TNE101092012  092013000000000012824000000000000000014 ADM RJ            000000004459104256625780                    
30002003294801MARCOS ANDRE PAIVA DA SILVA            18081973121TNE101092012  09201300000000001282400000000000000001                                103703357754                    
30002003294802LORENA SERRAO PAIVA                    23092010212TNE101092012  09201300000000001282400000000000000001                                116714425716                    
30002005480100CARLA COSTA MOREIRA                    28041969210TNE120032013  09201300000000001282400000000000000001                    106566      100466696710                    
30002005480101DANIEL COSTA MOREIRA RODRIGUES         19081998112TNE120032013  09201300000000001282400000000000000001                                100000000000                    
30002003297200CARLA CRISTINA HIRSCHBERG              18091974210TQN201092012  09201300000000002166300000000000000001ANAL LOGISTICA III  000000004463102067975757                    
30002003415000CARLA PEREIRA FIQUEIREDO               20071978210TNE101092012  0920130000000000128240000000000000000126 AMAIS S SETEMBRO 000000004718107436566792                    
30002003415001JALTER DA SILVEIRA BORGES JUNIOR       21081973121TNE101092012  09201300000000001282400000000000000001                                100000000000                    
30002003415002MARIANA PEREIRA F CRUZ                 22041997212TNE101092012  09201300000000001282400000000000000001                                100000000000                    
30002003415003ARTHUR BERNARDO PEREIRA FIGUEIREDO     11032008112TNE101092012  09201300000000001282400000000000000001                                100000000000                    
30002003445200CARLA PIRES PEIXOTO                    07011980210TNE101092012  0920130000000000128240000000000000000111 AMAIS C G        000000101231105219126792                    
30002005608100CARLOS ALBERTO DE MOURA                28061954120TQN216042013  09201300000000002166300000000000000001                    106819      132953682791                    
30002005608101ANA FRAZAO XAVIER DE MOURA             06051957211TQN216042013  09201300000000002166300000000000000001                                161201995787                    
30002004565900CARLOS CRISTIANO DE ARAUJO             30031986110TNE101092012  0920130000000000128240000000000000000127 AMAIS SAENZ PENA 105221      111169139760                    
30002004565901MIGUEL LUIZ GOMES DE ALMEIDA ARAUJO    16042013112TNE130042013  09201300000000001282400000000000000001                                100000000000                    
30002003544000CARLOS EDUARDO BEZERRA BATISTA         15061984110TNE101092012  0920130000000000128240000000000000000129 AMAIS T          000000103566110353462730                    
30002000019100CARLOS EDUARDO DE JESUS SANTOS         16021974120TNE101092012  09201300000000001282400000000000000001ANAL LAB II         000000004436103684348775                    
30002003318900CARMEM REGINA FERREIRA NASCIMENTO      12081960210TNE101092012  0920130000000000128240000000000000000120 AMAIS LAGO MAC   000000004529122468838491                    
30002003318901LUIZ CARLOS LEITINHO                   19121954121TNE101092012  09201300000000001282400000000000000001                                112952818720                    
30002003318901LUIZ CARLOS LEITINHO                   19121954121TNE101092012CM09201300000000001282400000000000000055                                112952818720                    
30002003318901LUIZ CARLOS LEITINHO                   19121954121TNE101092012CR08201300000000000769400000000000000055                                112952818720                    
30002003318902LEANDRO NASCIMENTO DOS SANTOS          18101984112TNE101092012  09201300000000001282400000000000000001                                198351358729                    
30002003318903LUISA NASCIMENTO LEITINHO              18031996212TNE101092012  09201300000000001282400000000000000001                                115851921714                    
30002004493800CARMEN SANDRA DE ARAUJO SANTOS         25011976240TNE101092012  092013000000000012824000000000000000019 AMAIS BARRA T     000000101743158655697249                    
30002004493801MARCOS ERNANI DE FREITAS SANTOS        16071961121TNE101092012  09201300000000001282400000000000000001                                100000000000                    
30002004493802YASMIN DE ARAUJO FREITAS               17022009212TNE101092012  09201300000000001282400000000000000001                                115023734757                    
30002004491100CAROLINA ESTHER SAMPAIO DE ARAUJO      29101982240TNE101092012  0920130000000000128240000000000000000129 AMAIS T          000000004660105683739799                    
30002004491101GUSTAVO LUIZ SOARES ESPINHEIRA         06051979121TNE101092012  09201300000000001282400000000000000001                                100000000000                    
30002003574200CAROLINE ALEXANDRE DE FREITAS          07081985210TQN201092012  092013000000000021663000000000000000014 ADM RJ            000000104396110614823757                    
30002005154300CASSIA ANDREIA PINTO DOS SANTOS        07061976230TNE108112012  09201300000000001282400000000000000001                    105754      105203351716                    
30002003357000CATIA C ALCUNHA ALMEIDA PEREIR         29121968220TNE101092012  092013000000000012824000000000000000019 AMAIS BARRA T     000000004602101133416799                    
30002003357001IVO ALFREDO DOS SANTOS PEREIRA         04101965121TNE101092012  09201300000000001282400000000000000001                                100000000000                    
30002003357002BRUNA DE ALMEIDA PEREIRA               21011996212TNE101092012  09201300000000001282400000000000000001                                116685080795                    
30002003389800CATIA MAFORTE DA SILVA                 03121980220TNE101092012  09201300000000001282400000000000000001ASSIST DE COLETA I  000000004670108709186727                    
30002003389801HEITOR MAFORTE COUTO PEREIRA           28112012112TNE108012013  09201300000000001282400000000000000001                                100000000000                    
30002000015900CELSO DA CONCEICAO BERTE               14021958120TNE101092012  092013000000000012824000000000000000014 ADM RJ            000000004414156712170753                    
30002000015901MARIA DAS GRACAS DA BERTE              14021963221TNE101092012  09201300000000001282400000000000000001                                100000000000                    
30002000015902JOAO VITOR DE MOURA BERTE              17032007112TNE101092012  09201300000000001282400000000000000001                                100000000000                    
30002003554800CESAR LOBO DA SILVA                    19011973110TNE101092012  09201300000000001282400000000000000001234 AMAIS COP       000000103885103561049745                    
30002003516500CHAYANE ALVARENGA CARVALHO             24061986210TNE101092012  092013000000000012824000000000000000017 AMAIS AM PEIXOTO  000000102689111349153737                    
30002003516501KAMYLLI ALVARENGA QUIRINO OLIVEIRA     31072012212TNE107012013  09201300000000001282400000000000000001                                100000000000                    
30002003516502KAROLLYNI A QUIRINO OLIVEIRA           31072012212TNE107012013  09201300000000001282400000000000000001                                100000000000                    
30002003584000CHRISTIANE DA SILVA DORNELAS           23091969220TNE101092012  0920130000000000128240000000000000000119 AMAIS JD BOT     000000104766100877923701                    
30002003584001GEOVANY DORNELAS                       21111972121TNE101092012  09201300000000001282400000000000000001                                100000000000                    
30002003584002BRUNO DA SILVA DORNELAS                01041999112TNE101092012  09201300000000001282400000000000000001                                100000000000                    
30002003584003BRENO DA SILVA DORNELAS                04072000112TNE101092012  09201300000000001282400000000000000001                                100000000000                    
30002003377400CICERO FLAVIO SOARES DA SILVA          28031979120TNE101092012  09201300000000001282400000000000000001ASSIST DE COLETA I  000000004637105186884707                    
30002003377401ADRIANA AFONSO DE BARROS               11031973221TNE101092012  09201300000000001282400000000000000001                                103315935726                    
30002003377402ADRIELE MARIA AFONSO DA SILVA          31102008212TNE101092012  09201300000000001282400000000000000001                                114506242785                    
30002003377403ANA MARIA AFONSO DA SILVA              22122010212TNE101092012  09201300000000001282400000000000000001                                116691788702                    
30002003384700CINTIA DA SILVA AVILA                  28081976220TNE101092012  0920130000000000128240000000000000000125 AMAIS RECREIO    000000004658107549375771                    
30002003384701RODRIGO MATOS PEREIRA                  05021976121TNE101092012  09201300000000001282400000000000000001                                100000000000                    
30002004492000CLAUDIA CRISTINA PEREIRA GOMES         14071971240TNE101092012  09201300000000001282400000000000000001193 AMAIS GEN OSORIO000000004678102548261727                    
30002004492001LENILSON AGOSTINHO MENDES              14011971121TNE101092012  09201300000000001282400000000000000001                                100000000000                    
30002004492002THIAGO GOMES MENDES                    04022000112TNE101092012  09201300000000001282400000000000000001                                116696125701                    
30002004492003PHILIPE GOMES MENDES                   01092007112TNE101092012  09201300000000001282400000000000000001                                116696143793                    
30002003581500CLAUDIA DE JESUS OLIVEIRA              06081987210TNE101092012  092013000000000012824000000000000000019 AMAIS BARRA T     000000104763112485203784                    
30002003581501DAVID DE BARROS DINIZ                  06051954121TNE125092012  09201300000000001282400000000000000001                                142813352772                    
30002003581502RODRIGO OLIVEIRA DINIZ                 07082013112TNE129082013IR08201300000000000085400000000000000003                                100000000000                    
30002003581502RODRIGO OLIVEIRA DINIZ                 07082013112TNE129082013IM09201300000000001282400000000000000003                                100000000000                    
30002003460600CLAUDIA NUNES BARCELLOS DA COSTA       12061967220TNE101092012  09201300000000001282400000000000000001ASSIST ADM III      000000101287193153295700                    
30002003460601ROBERTO JORGE DA COSTA                 19041963121TNE101092012  09201300000000001282400000000000000001                                171419837753                    
30002003460602IGOR NUNES BARCELLOS DA COSTA          15021995112TNE101092012  09201300000000001282400000000000000001                                116681367755                    
30002003460603LEONARDO NUNES BARCELLOS DA COSTA      24081998112TNE101092012  09201300000000001282400000000000000001                                116681367755                    
30002000009400CLAUDIO CAMPOS CARDOSO                 05051958120TNE101092012  0920130000000000128240000000000000000184 FL LEBLON        000000000670146792538787                    
30002000009401LUCIA SANTOS CAMPOS CARDOSO            23031960221TNE101092012  09201300000000001282400000000000000001                                100000000000                    
30002000009402SABRINA SANTOS CAMPOS CARDOSO          10071990212TNE101092012  09201300000000001282400000000000000001                                100000000000                    
30002003563700CLAUDIO PUSTILNIC                      11091970110NP0301092012  09201300000000003614200000000000000001GER NEG HOSPITAIS   000000104008103307178717                    
30002003563701MARIANA BEILDECK                       30091980221NP0305022013  09201300000000003614200000000000000001                                108306659783                    
30002003356100CLAUDIO ROBERTO PEREIRA DE CARVALHO    14051978110TNE101092012  09201300000000001282400000000000000001ASSIST DE COLETA I  000000004601107874616790                    
30002003456800CRISTIANE BATISTA MOREIRA DA SILVA     22041985210TNE101092012  0920130000000000128240000000000000000119 AMAIS JD BOT     000000101276110715536745                    
30002000028000CRISTIANE MONTEIRO DE SOUZA            09111971220TNE101092012  09201300000000001282400000000000000001OP DE ATENDIMENTO I 000000004458103020047773                    
30002000028001SOPHIA ANDRADE MONTEIRO DE SOUZA       29112007212TNE101092012  09201300000000001282400000000000000001                                100000000000                    
30002003416900CRISTIANE PEREIRA DA SILVA             06111981210TNE101092012  0920130000000000128240000000000000000126 AMAIS S SETEMBRO 000000004720109255084704                    
30002003476200CRISTIANE TORRES C PEDRA DE ALELUIA    07031974220TNE101092012  09201300000000001282400000000000000001199 AMAIS DEL CAST  000000101744103418859755                    
30002003476201PAULO CESAR FORTUNATO DE ALELUIA       25101972121TNE101092012  09201300000000001282400000000000000001                                100000000000                    
30002003476202PAULO VICTOR PEDRA DE ALELUIA          15041997112TNE101092012  09201300000000001282400000000000000001                                115414631700                    
30002003476203RUAN GOMES DE ALBUQUERQUE MACIEL       20111992112TNE101102012  09201300000000001282400000000000000001                                115806118770                    
30002003573400CRISTIANO GOMES VIANA                  28041984110TQN201092012  09201300000000002166300000000000000001ASS RESSON MAGN II  000000104385110356396703                    
30002005926900DAIANA RIBEIRO ELIAS NASCIMENTO        26021986210TNE105062013  09201300000000001282400000000000000001                    107153      105646974780                    
30002005926901ERCK CANAA RIBEIRO MATHEUS             10112008112TNE105062013  09201300000000001282400000000000000001                                100000000000                    
30002005696000DAMIANA FERNANDES DE SOUZA             20111981220TNE106052013  09201300000000001282400000000000000001                    106924      108709567798                    
30002005696001BRUNO FIGUEIREDO BERALDO               08011987121TNE106052013  09201300000000001282400000000000000001                                105766993730                    
30002003500900DANIEL BASTOS GOMES PEREIRA            15121970140TQN201092012  09201300000000002166300000000000000001COORD COMERCIAL     000000102447101494266741                    
30002003500901GIOVANNA TEDESCO BASTOS PEREIRA        19102002212TQN201092012  09201300000000002166300000000000000001                                116716745700                    
30002005368600DANIEL ENGIEL                          13051987110TQN211022013  09201300000000002166300000000000000001                    106272      111921082720                    
30002003430400DANIELA BACELLAR SOARES                21031988210TNE101092012  0920130000000000128240000000000000000126 AMAIS S SETEMBRO 000000004764112898504700                    
30002003304900DANIELA PINHEIRO CASTRO                09111980210TNE101092012  0920130000000000128240000000000000000121 AMAIS LEME       000000004498108744811713                    
30002005377500DANIELE BARROSO DE ARAUJO              07051980210TNE121022013  09201300000000001282400000000000000001                    106373      109001955762                    
30002005377501BERNARDO BARROSO SAAVEDRA              18072011112TNE121022013  09201300000000001282400000000000000001                                100000000000                    
30002000013200DANIELE CLIVE DE LIMA                  06071981210TQN201092012  09201300000000002166300000000000000001COORD ENF I         000000003122109513021750                    
30002000013201FELIPE TEIXEIRA SILVA                  30061982121TQN221052013  09201300000000002166300000000000000001                                109217743704                    
30002003533500DANIELE MACHADO COELHO                 24111979210TNE101092012  092013000000000012824000000000000000019 AMAIS BARRA T     000000103269110221739793                    
30002003533501MARIA CLARA COELHO DA SILVA            29092009212TNE101092012  09201300000000001282400000000000000001                                100000000000                    
30002003338300DANIELE OLIVEIRA DA SILVA TRINDADE     17071978220TNE101092012  09201300000000001282400000000000000001TEC LAB II          000000004562107683045713                    
30002003338301RONALDO FLORENCIO DA TRINDADE          13091972121TNE101092012  09201300000000001282400000000000000001                                100000000000                    
30002003338302JOAO V OLIVEIRA SILVA TRINDADE         15012008112TNE101092012  09201300000000001282400000000000000001                                100000000000                    
30002003432000DANIELLE MENEZES GOMES                 09101981210TNE101092012  092013000000000012824000000000000000017 AMAIS AM PEIXOTO  000000004766109501419762                    
30002003432001CAIO MENEZES SANTANA DE SOUZA          21012006112TNE101092012  09201300000000001282400000000000000001                                100000000000                    
30002003522000DANIELLE SIQUEIRA BARBOSA              25061988210TNE101092012  09201300000000001282400000000000000001199 AMAIS DEL CAST  000000103002112076109765                    
30002003522001MARCOS COSTA GOUY                      15021980121TNE101092012  09201300000000001282400000000000000001                                108685931762                    
30002003481900DAVID WILLIAMS BISPO DE OLIVEIRA       20031987110TNE101092012  0920130000000000128240000000000000000119 AMAIS JD BOT     000000102085112208481747                    
30002003481901SARAH CRISTINA MARQUES DE OLIVEIRA     01062011212TNE101092012  09201300000000001282400000000000000001                                100000000000                    
30002003481902LIDIA MARQUES PEREIRA                  01041989221TNE104062013  09201300000000001282400000000000000001                                112645363725                    
30002003481903ISABELLY CRISTINA MARQUES MACIEL       30082006212TNE104052013  09201300000000001282400000000000000001                                100000000000                    
30002003529700DAYANE GARCIA DOS SANTOS LUIZ          28021988220TNE101092012  092013000000000012824000000000000000019 AMAIS BARRA T     000000103258111801863709                    
30002003529701LUCAS EDUARDO LUIZ ALVES               14021986121TNE101092012  09201300000000001282400000000000000001                                111650623720                    
30002003463000DEBORA ARAUJO PIMENTA                  17021983220TNE101092012  092013000000000012824000000000000000019 AMAIS BARRA T     000000101318110060407735                    
30002003463001MARCELO ANGELO ARAUJO PIMENTA          16121997112TNE101092012  09201300000000001282400000000000000001                                116592819707                    
30002003463002GABRIEL DE ARAUJO PIMENTA              24102000112TNE101092012  09201300000000001282400000000000000001                                116592839732                    
30002003463003ANDERSON DOS SANTOS PIMENTA            17071981121TNE112122012  09201300000000001282400000000000000001                                109119609701                    
30002005512300DEBORA CONCEICAO DE SENNA              23031981210TNE102042013  09201300000000001282400000000000000001                    106722      108327855719                    
30002003568800DEBORA DE SOUZA FARIA                  14081986220TNE101092012  0920130000000000128240000000000000000119 AMAIS JD BOT     000000104166111131520793                    
30002003568801JORGE LUIZ FARIA                       13101969121TNE101092012  09201300000000001282400000000000000001                                197496570710                    
30002003568802AGATHA DE SOUZA FARIA                  06052011212TNE101092012  09201300000000001282400000000000000001                                100000000000                    
30002003352900DEISE ALVES LOUREIRO                   19051973220TNE101092012  09201300000000001282400000000000000001OP DE ATENDIMENTO I 000000004590102429095742                    
30002003352901EDUARDO RODRIGUES GOMES                31101983121TNE101092012  09201300000000001282400000000000000001                                110554446707                    
30002003371500DENIS FERREIRA GUALBERTO               31071978110TNE101092012  0920130000000000128240000000000000000110 AMAIS BOT        000000004627108520928730                    
30002003371501LUIZ MIGUEL R ALVES GUALBERTO          22112007112TNE101092012  09201300000000001282400000000000000001                                100000000000                    
30002003386300DENISE ALVES LOUREIRO PENA             03051970220TQN201092012  09201300000000002166300000000000000001COORD ATEND I       000000004663101047568705                    
30002003386301GERALDO BRETAS PENNA                   24031970121TQN201092012  09201300000000002166300000000000000001                                100000000000                    
30002003386302MIGUEL LOUREIRO PENA                   26022007112TQN201092012  09201300000000002166300000000000000001                                115389351711                    
30002003557200DENISE DOS SANTOS BATISTA ELIDORIO     14061978220TNE101092012  092013000000000012824000000000000000019 AMAIS BARRA T     000000103888108921179747                    
30002003557201ALEXANDRE DA COSTA ELIDORIO            26071977121TNE101092012  09201300000000001282400000000000000001                                105248658764                    
30002003557202ALENYSIO SANTOS BATISTA ELIDORIO       05112008112TNE101092012  09201300000000001282400000000000000001                                116336657710                    
30002003473800DIOGO FERREIRA DOS SANTOS              01041982110TNE101092012  0920130000000000128240000000000000000111 AMAIS C G        000000101639110497961792                    
30002003346400DIRLENE FERREIRA CORTES                23081957210TNE101092012  0920130000000000128240000000000000000130 AMAIS TAQ        000000004580193550596715                    
30002003358800DRIELE PEREIRA MAZZARELLA              01021987210TNE101092012  09201300000000001282400000000000000001ASSIST DE COLETA I  000000004606111788277716                    
30002003358801NICOLLAS MAZZARELLA DE SOUZA CORREA    30032012112TNE101092012  09201300000000001282400000000000000001                                100000000000                    
30002005430500DRIELI MARTINS MOTTA DA SILVA          17021985210TNE106032013  09201300000000001282400000000000000001                    106431      110444715738                    
30002003466500EDVALDO ANACLETO AGUIAR SOARES         18081970120TNE101092012  0920130000000000128240000000000000000184 FL LEBLON        000000101379136575747272                    
30002003466501MIRIAM PESSOA                          24081968221TNE101092012  09201300000000001282400000000000000001                                132002190178                    
30002003466502ANDRESSA PESSOA SOARES                 11022007212TNE101092012  09201300000000001282400000000000000001                                100000000000                    
30002003419300ELAINE CRISTINA LIMA                   08081979210TNE101092012  0920130000000000128240000000000000000131 AMAIS TAV MAC    000000004727105320315716                    
30002003382000ELAINE DE ARAUJO PEREIRA               22081983210TNE101092012  0920130000000000128240000000000000000120 AMAIS LAGO MAC   000000004654110587672757                    
30002003388000ELAINE LIMA DA COSTA FIDELIS           09041978220TNE101092012  0920130000000000128240000000000000000129 AMAIS T          000000004668105143008760                    
30002003388001ALCIDES GONCALVES FIDELIS              09101975121TNE101092012  09201300000000001282400000000000000001                                100000000000                    
30002003388002JOAO VITOR DA COSTA FIDELIS            15022008112TNE101092012  09201300000000001282400000000000000001                                116801364707                    
30002003388003KAIO LUCAS DA COSTA FIDELES            16072003112TNE101092012  09201300000000001282400000000000000001                                100000000000                    
30002005367800ELAINE RAMOS DA SILVA E SILVA          08041984210TQN211022013  09201300000000002166300000000000000001                    106271      109980826789                    
30002003327800ELAINE REGINA EMILIANO DA SILVA        03071968220TNE101092012  09201300000000001282400000000000000001239 AMAIS CENTRO    000000004540100396321720                    
30002003327801JEFERSON ROGERIO EMILIANO              22111965121TNE101092012  09201300000000001282400000000000000001                                100000000000                    
30002003327802ALAN EMILIANO DA SILVA                 06111993112TNE101092012  09201300000000001282400000000000000001                                100000000000                    
30002003413400ELANE VIEIRA RAMALHO                   15011977210TNE101092012  0920130000000000128240000000000000000131 AMAIS TAV MAC    000000004715108261373770                    
30002003413401RICARDO SANTOS DA SILVA                07021980121TNE118122012  09201300000000001282400000000000000001                                108387316784                    
30002003316200ELEICA DA SILVA TEOFILO                20011970220TNE101092012  0920130000000000128240000000000000000119 AMAIS JD BOT     000000004527195491007749                    
30002003316201JOAO CARLOS DA SILVA                   17051965121TNE101092012  09201300000000001282400000000000000001                                100000000000                    
30002003316202GABRIELLE DA SILVA TEOFILO             25111994212TNE101092012  09201300000000001282400000000000000001                                100000000000                    
30002003316203JULIANNA TEOFILO DA SILVA              08101996212TNE101092012  09201300000000001282400000000000000001                                100000000000                    
30002004549700ELIANE ALVES DE OLIVEIRA               04071977220TQN201092012  09201300000000002166300000000000000001                    105027      107492325797                    
30002004549701GILBERTO DIAS DA SILVA                 13091982121TQN201092012  09201300000000002166300000000000000001                                104755577780                    
30002004549702BERNARDO DE OLIVEIRA DIAS              01082013112TQN219082013IR08201300000000000866500000000000000003                                117491454720                    
30002004549702BERNARDO DE OLIVEIRA DIAS              01082013112TQN219082013IM09201300000000002166300000000000000003                                117491454720                    
30002003309000ELIANE ARAUJO DE MAGALHAES             26011966220TNE101092012  09201300000000001282400000000000000001234 AMAIS COP       000000004511148729370400                    
30002003309001RICARDO DE MAGALHAES                   12041971121TNE101092012  09201300000000001282400000000000000001                                100000000000                    
30002003309002RICARDO A MAGALHAES JUNIOR             25061990112TNE101092012  09201300000000001282400000000000000001                                100000000000                    
30002003309003BEATRIZ ARAUJO DE MAGALHAES            11081999212TNE101092012  09201300000000001282400000000000000001                                100000000000                    
30002003475400ELISA MARTINS DE AZEVEDO GOMES         29011973220TNE101092012  0920130000000000128240000000000000000132 AMAIS TERESOPOLIS000000101667101969312742                    
30002003475401ANDRE TORRES GOMES                     29111968121TNE101092012  09201300000000001282400000000000000001                                100000000000                    
30002003475402ALICE DE AZEVEDO GOMES                 14122008212TNE101092012  09201300000000001282400000000000000001                                116136432765                    
30002003475403LIVIA DE AZEVEDO GOMES                 31101997212TNE101092012  09201300000000001282400000000000000001                                100000000000                    
30002000021300ELISABETE MENAS DE MATTOS              14051960220TNE101092012  09201300000000001282400000000000000001ANAL LAB II         000000004438186079948753                    
30002000021301PAULA MENAS DE MATTOS                  28081993212TNE101092012  09201300000000001282400000000000000001                                113882700726                    
30002000021302LETICIA MENAS DE MATTOS                08041997212TNE101092012  09201300000000001282400000000000000001                                114855680729                    
30002003457600ELISANGELA SANTOS DE OLIVEIRA          26031973210TNE101092012  0920130000000000128240000000000000000119 AMAIS JD BOT     000000101283109078874732                    
30002003457600ELISANGELA SANTOS DE OLIVEIRA          26031973210TNE101092012CM0920130000000000128240000000000000005519 AMAIS JD BOT     000000101283109078874732                    
30002003457600ELISANGELA SANTOS DE OLIVEIRA          26031973210TNE101092012CR0820130000000000128240000000000000005519 AMAIS JD BOT     000000101283109078874732                    
30002003457600ELISANGELA SANTOS DE OLIVEIRA          26031973210TNE101092012CR0720130000000000004270000000000000005519 AMAIS JD BOT     000000101283109078874732                    
30002003457601PEDRO EBERE ZARE                       20011981121TNE101092012  09201300000000001282400000000000000001                                100000000000                    
30002003457601PEDRO EBERE ZARE                       20011981121TNE101092012CM09201300000000001282400000000000000055                                100000000000                    
30002003457601PEDRO EBERE ZARE                       20011981121TNE101092012CR08201300000000001282400000000000000055                                100000000000                    
30002003457601PEDRO EBERE ZARE                       20011981121TNE101092012CR07201300000000000042700000000000000055                                100000000000                    
30002003457602LUAN VITOR SANTOS DA COSTA             09041998112TNE101092012  09201300000000001282400000000000000001                                116687373706                    
30002003457602LUAN VITOR SANTOS DA COSTA             09041998112TNE101092012CM09201300000000001282400000000000000055                                116687373706                    
30002003457602LUAN VITOR SANTOS DA COSTA             09041998112TNE101092012CR08201300000000001282400000000000000055                                116687373706                    
30002003457602LUAN VITOR SANTOS DA COSTA             09041998112TNE101092012CR07201300000000000042700000000000000055                                116687373706                    
30002003351000ELISETE DUARTE ALMEIDA                 22041966210TNE101092012  0920130000000000128240000000000000000123 AMAIS MEIER      000000004589101155382757                    
30002003311100ELIZABETH CANDIDA DA SILVA             21071960230TNE101092012  0920130000000000128240000000000000000127 AMAIS SAENZ PENA 000000004515173305278749                    
30002003487800EZEQUIEL FLORENCIO LUZ                 23021980110TNE101092012  092013000000000012824000000000000000014 ADM RJ            000000102197105190082784                    
30002003564500FABIANA VILLAMARIN                     23121977210TQN201092012  09201300000000002166300000000000000001CONSULTOR DE RH     000000104013127134315819                    
30002003367700FABIO LUIZ ROCHA QUINTAO               31071964110TNE101092012  09201300000000001282400000000000000001138 AMAIS ITAIPU    000000004620185844012704                    
30002000039600FABIOLA SA DE OLIVEIRA                 28051978210TQN201092012  0920130000000000216630000000000000000110 AMAIS BOT        000000004504107505378767                    
30002000039601CLAUDIO DE OLIVEIRA SILVA              26081971121TQN201092012  09201300000000002166300000000000000001                                100586768726                    
30002005818100FELIPE HENRIQUE DA COSTA               01081986110TNE116052013  09201300000000001282400000000000000001                    107036      112488863726                    
30002005818101AMANDA RIBEIRO DA COSTA                11052012212TNE116052013  09201300000000001282400000000000000001                                100000000000                    
30002003536000FERNANDA APARECIDA GOMES DA SILVA      08021985210TNE101092012  092013000000000012824000000000000000019 AMAIS BARRA T     000000103353110215685709                    
30002003335900FERNANDA COLLETE FREITAS SILVA         18091979220TNE101092012  09201300000000001282400000000000000001229 PETROBRAS RJ    000000004559109682249708                    
30002003335901ANDRE LUIZ VIANA DA SILVA              06051974121TNE101092012  09201300000000001282400000000000000001                                100000000000                    
30002003335902ARTHUR COLLETE VIANA                   20042009112TNE101092012  09201300000000001282400000000000000001                                100000000000                    
30002000023000FERNANDA RODRIGUES DA SILVA            30061964220TNE101092012  092013000000000012824000000000000000014 ADM RJ            000000004447178375134791                    
30002000023001FRANCISCO RODRIGUES DO CARMO FILHO     23011963121TNE101092012  09201300000000001282400000000000000001                                100000000000                    
30002000023002ERICA RODRIGUES DA SILVA               01121989212TNE101092012  09201300000000001282400000000000000001                                100000000000                    
30002000023003PATRIK RODRIGUES DO CARMO SILVA        15031991112TNE101092012  09201300000000001282400000000000000001                                100000000000                    
30002000023004ERIK RODRIGUES DO CARMO SILVA          18051994112TNE101092012  09201300000000001282400000000000000001                                100000000000                    
30002000023005PAMELA RODRIGUES DA SILVA              16061989212TNE101092012  09201300000000001282400000000000000001                                100000000000                    
30002003399500FLAVIA BATISTA JEREMIAS                04111980220TQN201092012  0920130000000000216630000000000000000119 AMAIS JD BOT     000000004688108560880720                    
30002003399501COSME DA SILVA OLIVEIRA                30072008121TQN201092012  09201300000000002166300000000000000001                                108218195777                    
30002003399502CAMILA JEREMIAS OLIVEIRA               14022007212TQN201092012  09201300000000002166300000000000000001                                116685135794                    
30002004625600FLAVIA DE SOUZA COELHO                 02071983210TNE128092012  09201300000000001282400000000000000001121 L CAC BOT       00007869    109905602798                    
30002004625601YARA COELHO MARQUES                    24072002212TNE128092012  09201300000000001282400000000000000001                                100000000000                    
30002003539400FLAVIA DOS SANTOS COSTA                27121979240TNE101092012  0920130000000000128240000000000000000119 AMAIS JD BOT     000000103499108257234770                    
30002003539401ANA CLARA COSTA SANTOS                 18062000212TNE101092012  09201300000000001282400000000000000001                                114962909762                    
30002003541600FLAVIA VIRGINIA COUTO                  20061983210TNE101092012  0920130000000000128240000000000000000111 AMAIS C G        000000103501110059251786                    
30002005693600FRANCISCO DE ASSIS SILVA ARGOLO        17051976120TNE106052013  09201300000000001282400000000000000001                    106921      103240289709                    
30002005693601IGOR DE OLIVEIRA ARGOLO                10042009112TNE106052013  09201300000000001282400000000000000001                                100000000000                    
30002005693602SIMONE DE OLIVEIRA ARGOLO              05091985221TNE106052013  09201300000000001282400000000000000001                                113068876745                    
30002003325100FRANCISCO SOARES MONTEIRO NETO         03081967120TNE101092012  09201300000000001282400000000000000001239 AMAIS CENTRO    000000004538192653464772                    
30002003325101RAQUEL PAULO MONTEIRO                  29121972221TNE101092012  09201300000000001282400000000000000001                                100000000000                    
30002003325102RAVEL PAULO TEIXEIRA MONTEIRO          31072000112TNE101092012  09201300000000001282400000000000000001                                116715127743                    
30002003325103LUIZA TEIXEIRA MONTEIRO                27042005212TNE101092012  09201300000000001282400000000000000001                                100000000000                    
30002003467300FRANCYNE AGNES COUTO DE MACEDO         20071986210TNE101092012  09201300000000001282400000000000000001ASSIST DE COLETA I  000000101417112316606784                    
30002003561000GABRIELA JUSTINO FONSECA               26111983210TNE101092012  092013000000000012824000000000000000013 AMAIS JACAREPAGUA 000000103967105451614792                    
30002003561001KAIKE JUSTINO PROCOPIO DOS PASSOS      26112004112TNE101092012  09201300000000001282400000000000000001                                100000000000                    
30002003410000GILMARA GOMES DA SILVA                 21041980220TNE101092012  0920130000000000128240000000000000000131 AMAIS TAV MAC    000000004711108414078788                    
30002003410001RONALDO DO SILVA                       16051975121TNE101092012  09201300000000001282400000000000000001                                100000000000                    
30002003410002MIGUEL GOMES DO NASCIMENTO             16112010112TNE101092012  09201300000000001282400000000000000001                                116654728718                    
30002003289100GIOVANA DE OLIVEIRA COSTA              17121972210TNE101092012  09201300000000001282400000000000000001TEC LAB II          000000004428101173735755                    
30002003289101JOSE ANTONIO ALVES FILGUEIRA           02021972121TNE101092012  09201300000000001282400000000000000001                                100000000000                    
30002003289102GIULIA COSTA FILGUEIRA                 05011997212TNE101092012  09201300000000001282400000000000000001                                100000000000                    
30002003289103MARIANA COSTA FILGEIRA                 14112010212TNE101092012  09201300000000001282400000000000000001                                100000000000                    
30002005022900GIOVANNE DE OLIVEIRA FERREIRA          01121974240TNE103102012  0920130000000000128240000000000000000111 AMAIS C G        105512      102421955718                    
30002005022901GABRIELLE DE REZENDE SOUZA FERREIRA    01111996212TNE103102012  09201300000000001282400000000000000001                                100000000000                    
30002005022902MANUELLA RODRIGUES FERREIRA            15122006212TNE103102012  09201300000000001282400000000000000001                                100000000000                    
30002003368500GISELE PATRICIA NUNES FREITAS          24081978210TQN201092012  0920130000000000216630000000000000000110 AMAIS BOT        000000004622107945373755                    
30002003495900GISELY FERREIRA MARIA DE ALMEIDA       13031981220TNE101092012  0920130000000000128240000000000000000119 AMAIS JD BOT     000000102417105453479710                    
30002003495901LUCIANO FERREIRA DE ALMEIDA            05091978121TNE101092012  09201300000000001282400000000000000001                                100000000000                    
30002003495902SOPHIA FERREIRA DE ALMEIDA             19022010212TNE101092012  09201300000000001282400000000000000001                                100000000000                    
30002003543200GLAUCE MENDES DE AZEVEDO PERES         04091982220TNE101092012  0920130000000000128240000000000000000134 AMAIS VILA P     000000103565109304259797                    
30002003543201MARCELO DOS SANTOS PERES               28111975121TNE101092012  09201300000000001282400000000000000001                                100000000000                    
30002003543202MARCELA MENDES DE AZEVEDO PERES        05102005212TNE101092012  09201300000000001282400000000000000001                                100000000000                    
30002003373100GLAUCIA FERREIRA MEDEIROS              16081976210TNE101092012  0920130000000000128240000000000000000111 AMAIS C G        000000004631103566376701                    
30002003373101PEDRO HENRRIQUE MEDEIROS DA SILVA      08041995112TNE101092012  09201300000000001282400000000000000001                                100000000000                    
30002005094600GLEICE LUCIA DUARTE DE SOUZA           02051974220TNE123102012  09201300000000001282400000000000000001                    105631      103799680705                    
30002005094601ANDERSON RODRIGUES DE SOUZA            29031973121TNE123102012  09201300000000001282400000000000000001                                103751512730                    
30002005094602LETICIA DUARTE SOUZA                   25112000212TNE123102012  09201300000000001282400000000000000001                                100000000000                    
30002005102000GUILHERME AUGUSTO MACHADO MENDES       11111985110TQN223102012  09201300000000002166300000000000000001                    102622      133301467881                    
30002003329400INDAIA DE PAULA VALENTIM DA SILVA      06081972220TNE101092012  0920130000000000128240000000000000000134 AMAIS VILA P     000000004546102939269726                    
30002003329401ATILIO JOSE BASTOS DA SILVA            21091970121TNE101092012  09201300000000001282400000000000000001                                100000000000                    
30002003329402PATRICK P VELENTIM BASTOS SILVA        30081995112TNE101092012  09201300000000001282400000000000000001                                100000000000                    
